:100000004958066060BD1444E0BC1244166040BB11
:100010000F449783005806B76FA1166060BD08446F
:100020000660E0BC054440BB034486B3E788005843
:100030000FB70E240058066150BB134009601660CC
:100040006AC4DF5FEA5FD5A0166064C406B4F7F047
:100050000248E8E8F05B06B4E8E81660E6E7688482
:10006000EA5B0F040E240424052406240724082434
:1000700009240A2404600560166007B188B1D95FBD
:1000800080B301B40A040904080407040604050443
:0E00900004040F040060916002609360E35F5F
:00000001FF
